{
    "contractName": "DataStorage",
    "abi": [
        {
            "inputs": [],
            "stateMutability": "nonpayable",
            "type": "constructor"
        },
        {
            "anonymous": false,
            "inputs": [
                {
                    "indexed": true,
                    "internalType": "bytes32",
                    "name": "transactionHash",
                    "type": "bytes32"
                },
                {
                    "indexed": false,
                    "internalType": "string",
                    "name": "userId",
                    "type": "string"
                },
                {
                    "indexed": false,
                    "internalType": "string",
                    "name": "email",
                    "type": "string"
                },
                {
                    "indexed": false,
                    "internalType": "string",
                    "name": "shipmentServiceCode",
                    "type": "string"
                },
                {
                    "indexed": false,
                    "internalType": "string",
                    "name": "carrierName",
                    "type": "string"
                },
                {
                    "indexed": false,
                    "internalType": "string",
                    "name": "createdAt",
                    "type": "string"
                },
                {
                    "indexed": false,
                    "internalType": "string",
                    "name": "status",
                    "type": "string"
                },
                {
                    "indexed": false,
                    "internalType": "string",
                    "name": "selectedRate",
                    "type": "string"
                },
                {
                    "indexed": false,
                    "internalType": "string",
                    "name": "noOfInstallments",
                    "type": "string"
                },
                {
                    "indexed": false,
                    "internalType": "string",
                    "name": "netPayable",
                    "type": "string"
                },
                {
                    "indexed": false,
                    "internalType": "string",
                    "name": "insuranceAmount",
                    "type": "string"
                },
                {
                    "indexed": false,
                    "internalType": "string",
                    "name": "paymentMethod",
                    "type": "string"
                }
            ],
            "name": "DataCreated",
            "type": "event"
        },
        {
            "anonymous": false,
            "inputs": [
                {
                    "indexed": true,
                    "internalType": "bytes32",
                    "name": "transactionHash",
                    "type": "bytes32"
                },
                {
                    "indexed": false,
                    "internalType": "string[]",
                    "name": "paidAmount",
                    "type": "string[]"
                },
                {
                    "indexed": false,
                    "internalType": "string[]",
                    "name": "paymentDate",
                    "type": "string[]"
                }
            ],
            "name": "PaidAmountUpdated",
            "type": "event"
        },
        {
            "anonymous": false,
            "inputs": [
                {
                    "indexed": true,
                    "internalType": "bytes32",
                    "name": "transactionHash",
                    "type": "bytes32"
                },
                {
                    "indexed": false,
                    "internalType": "string",
                    "name": "status",
                    "type": "string"
                }
            ],
            "name": "StatusUpdated",
            "type": "event"
        },
        {
            "anonymous": false,
            "inputs": [
                {
                    "indexed": false,
                    "internalType": "string[]",
                    "name": "instalmentDeadLine",
                    "type": "string[]"
                },
                {
                    "indexed": false,
                    "internalType": "string[]",
                    "name": "payableAmounta",
                    "type": "string[]"
                }
            ],
            "name": "updateInstalmentData",
            "type": "event"
        },
        {
            "inputs": [
                {
                    "internalType": "string",
                    "name": "_userId",
                    "type": "string"
                },
                {
                    "internalType": "string",
                    "name": "_email",
                    "type": "string"
                },
                {
                    "internalType": "string",
                    "name": "_shipmentServiceCode",
                    "type": "string"
                },
                {
                    "internalType": "string",
                    "name": "_carrierName",
                    "type": "string"
                },
                {
                    "internalType": "string",
                    "name": "_createdAt",
                    "type": "string"
                },
                {
                    "internalType": "string",
                    "name": "_status",
                    "type": "string"
                },
                {
                    "internalType": "string",
                    "name": "_selectedRate",
                    "type": "string"
                },
                {
                    "internalType": "string",
                    "name": "_noOfInstallments",
                    "type": "string"
                },
                {
                    "internalType": "string",
                    "name": "_netPayable",
                    "type": "string"
                },
                {
                    "internalType": "string",
                    "name": "_insuranceAmount",
                    "type": "string"
                },
                {
                    "internalType": "string",
                    "name": "_paymentMethod",
                    "type": "string"
                }
            ],
            "name": "createData",
            "outputs": [],
            "stateMutability": "nonpayable",
            "type": "function"
        },
        {
            "inputs": [],
            "name": "creator",
            "outputs": [
                {
                    "internalType": "address",
                    "name": "",
                    "type": "address"
                }
            ],
            "stateMutability": "view",
            "type": "function"
        },
        {
            "inputs": [
                {
                    "internalType": "uint256",
                    "name": "",
                    "type": "uint256"
                }
            ],
            "name": "dataKeys",
            "outputs": [
                {
                    "internalType": "bytes32",
                    "name": "",
                    "type": "bytes32"
                }
            ],
            "stateMutability": "view",
            "type": "function"
        },
        {
            "inputs": [
                {
                    "internalType": "bytes32",
                    "name": "",
                    "type": "bytes32"
                }
            ],
            "name": "dataMap",
            "outputs": [
                {
                    "internalType": "string",
                    "name": "userId",
                    "type": "string"
                },
                {
                    "internalType": "string",
                    "name": "email",
                    "type": "string"
                },
                {
                    "internalType": "string",
                    "name": "shipmentServiceCode",
                    "type": "string"
                },
                {
                    "internalType": "string",
                    "name": "carrierName",
                    "type": "string"
                },
                {
                    "internalType": "string",
                    "name": "createdAt",
                    "type": "string"
                },
                {
                    "internalType": "string",
                    "name": "status",
                    "type": "string"
                },
                {
                    "internalType": "string",
                    "name": "selectedRate",
                    "type": "string"
                },
                {
                    "internalType": "string",
                    "name": "noOfInstallments",
                    "type": "string"
                },
                {
                    "internalType": "string",
                    "name": "netPayable",
                    "type": "string"
                },
                {
                    "internalType": "string",
                    "name": "insuranceAmount",
                    "type": "string"
                },
                {
                    "internalType": "string",
                    "name": "paymentMethod",
                    "type": "string"
                }
            ],
            "stateMutability": "view",
            "type": "function"
        },
        {
            "inputs": [],
            "name": "getAllData",
            "outputs": [
                {
                    "internalType": "bytes32[]",
                    "name": "",
                    "type": "bytes32[]"
                }
            ],
            "stateMutability": "view",
            "type": "function"
        },
        {
            "inputs": [
                {
                    "internalType": "bytes32",
                    "name": "_transactionHash",
                    "type": "bytes32"
                }
            ],
            "name": "getDataByTransactionHash",
            "outputs": [
                {
                    "internalType": "string",
                    "name": "userId",
                    "type": "string"
                },
                {
                    "internalType": "string",
                    "name": "email",
                    "type": "string"
                },
                {
                    "internalType": "string",
                    "name": "shipmentServiceCode",
                    "type": "string"
                },
                {
                    "internalType": "string",
                    "name": "carrierName",
                    "type": "string"
                },
                {
                    "internalType": "string",
                    "name": "createdAt",
                    "type": "string"
                },
                {
                    "internalType": "string",
                    "name": "status",
                    "type": "string"
                },
                {
                    "internalType": "string",
                    "name": "selectedRate",
                    "type": "string"
                },
                {
                    "internalType": "string",
                    "name": "noOfInstallments",
                    "type": "string"
                },
                {
                    "internalType": "string",
                    "name": "netPayable",
                    "type": "string"
                },
                {
                    "internalType": "string",
                    "name": "insuranceAmount",
                    "type": "string"
                },
                {
                    "internalType": "string",
                    "name": "paymentMethod",
                    "type": "string"
                }
            ],
            "stateMutability": "view",
            "type": "function"
        },
        {
            "inputs": [
                {
                    "internalType": "bytes32",
                    "name": "_transactionHash",
                    "type": "bytes32"
                }
            ],
            "name": "getInstalmentDataByTransactionHash",
            "outputs": [
                {
                    "internalType": "string[]",
                    "name": "instalmentDeadLine",
                    "type": "string[]"
                },
                {
                    "internalType": "string[]",
                    "name": "payableAmount",
                    "type": "string[]"
                },
                {
                    "internalType": "string[]",
                    "name": "paymentDate",
                    "type": "string[]"
                },
                {
                    "internalType": "string[]",
                    "name": "paidAmount",
                    "type": "string[]"
                }
            ],
            "stateMutability": "view",
            "type": "function"
        },
        {
            "inputs": [
                {
                    "internalType": "bytes32",
                    "name": "_transactionHash",
                    "type": "bytes32"
                },
                {
                    "internalType": "string[]",
                    "name": "_instalmentDeadLine",
                    "type": "string[]"
                },
                {
                    "internalType": "string[]",
                    "name": "_payableAmount",
                    "type": "string[]"
                }
            ],
            "name": "setInstallmentData",
            "outputs": [],
            "stateMutability": "nonpayable",
            "type": "function"
        },
        {
            "inputs": [
                {
                    "internalType": "bytes32",
                    "name": "_transactionHash",
                    "type": "bytes32"
                },
                {
                    "internalType": "string",
                    "name": "_paidAmount",
                    "type": "string"
                },
                {
                    "internalType": "string",
                    "name": "_paymentDate",
                    "type": "string"
                }
            ],
            "name": "updateInstalment",
            "outputs": [],
            "stateMutability": "nonpayable",
            "type": "function"
        },
        {
            "inputs": [
                {
                    "internalType": "bytes32",
                    "name": "_transactionHash",
                    "type": "bytes32"
                },
                {
                    "internalType": "string",
                    "name": "_status",
                    "type": "string"
                }
            ],
            "name": "updateStatus",
            "outputs": [],
            "stateMutability": "nonpayable",
            "type": "function"
        }
    ],
    "bytecode": "608060405234801561001057600080fd5b50600080546001600160a01b0319163317905561213c806100326000396000f3fe608060405234801561001057600080fd5b506004361061009e5760003560e01c8063b3dc7a5f11610066578063b3dc7a5f1461014a578063d01dcb581461015d578063e346b00b14610170578063ec89dc1c14610183578063fbabfd0b146101a457600080fd5b806302d05d3f146100a35780632d10fa28146100d35780632d3ab0c0146100e857806346bcad621461010b57806370399a5514610135575b600080fd5b6000546100b6906001600160a01b031681565b6040516001600160a01b0390911681526020015b60405180910390f35b6100db6101b7565b6040516100ca9190611764565b6100fb6100f63660046117a8565b61020f565b6040516100ca9493929190611869565b61011e6101193660046117a8565b6105d1565b6040516100ca9b9a999897969594939291906118c1565b610148610143366004611a69565b610bfb565b005b610148610158366004611ab0565b610cb1565b61014861016b366004611c6d565b610e30565b61011e61017e3660046117a8565b610f24565b6101966101913660046117a8565b6115d2565b6040519081526020016100ca565b6101486101b2366004611d79565b6115f3565b6060600280548060200260200160405190810160405280929190818152602001828054801561020557602002820191906000526020600020905b8154815260200190600101908083116101f1575b5050505050905090565b606080606080600060016000878152602001908152602001600020905080600101805461023b90611ddc565b90506000036102655760405162461bcd60e51b815260040161025c90611e16565b60405180910390fd5b80600b0181600c0182600d0183600e0183805480602002602001604051908101604052809291908181526020016000905b828210156103425783829060005260206000200180546102b590611ddc565b80601f01602080910402602001604051908101604052809291908181526020018280546102e190611ddc565b801561032e5780601f106103035761010080835404028352916020019161032e565b820191906000526020600020905b81548152906001019060200180831161031157829003601f168201915b505050505081526020019060010190610296565b50505050935082805480602002602001604051908101604052809291908181526020016000905b8282101561041557838290600052602060002001805461038890611ddc565b80601f01602080910402602001604051908101604052809291908181526020018280546103b490611ddc565b80156104015780601f106103d657610100808354040283529160200191610401565b820191906000526020600020905b8154815290600101906020018083116103e457829003601f168201915b505050505081526020019060010190610369565b50505050925081805480602002602001604051908101604052809291908181526020016000905b828210156104e857838290600052602060002001805461045b90611ddc565b80601f016020809104026020016040519081016040528092919081815260200182805461048790611ddc565b80156104d45780601f106104a9576101008083540402835291602001916104d4565b820191906000526020600020905b8154815290600101906020018083116104b757829003601f168201915b50505050508152602001906001019061043c565b50505050915080805480602002602001604051908101604052809291908181526020016000905b828210156105bb57838290600052602060002001805461052e90611ddc565b80601f016020809104026020016040519081016040528092919081815260200182805461055a90611ddc565b80156105a75780601f1061057c576101008083540402835291602001916105a7565b820191906000526020600020905b81548152906001019060200180831161058a57829003601f168201915b50505050508152602001906001019061050f565b5050505090509450945094509450509193509193565b6001602052600090815260409020805481906105ec90611ddc565b80601f016020809104026020016040519081016040528092919081815260200182805461061890611ddc565b80156106655780601f1061063a57610100808354040283529160200191610665565b820191906000526020600020905b81548152906001019060200180831161064857829003601f168201915b50505050509080600101805461067a90611ddc565b80601f01602080910402602001604051908101604052809291908181526020018280546106a690611ddc565b80156106f35780601f106106c8576101008083540402835291602001916106f3565b820191906000526020600020905b8154815290600101906020018083116106d657829003601f168201915b50505050509080600201805461070890611ddc565b80601f016020809104026020016040519081016040528092919081815260200182805461073490611ddc565b80156107815780601f1061075657610100808354040283529160200191610781565b820191906000526020600020905b81548152906001019060200180831161076457829003601f168201915b50505050509080600301805461079690611ddc565b80601f01602080910402602001604051908101604052809291908181526020018280546107c290611ddc565b801561080f5780601f106107e45761010080835404028352916020019161080f565b820191906000526020600020905b8154815290600101906020018083116107f257829003601f168201915b50505050509080600401805461082490611ddc565b80601f016020809104026020016040519081016040528092919081815260200182805461085090611ddc565b801561089d5780601f106108725761010080835404028352916020019161089d565b820191906000526020600020905b81548152906001019060200180831161088057829003601f168201915b5050505050908060050180546108b290611ddc565b80601f01602080910402602001604051908101604052809291908181526020018280546108de90611ddc565b801561092b5780601f106109005761010080835404028352916020019161092b565b820191906000526020600020905b81548152906001019060200180831161090e57829003601f168201915b50505050509080600601805461094090611ddc565b80601f016020809104026020016040519081016040528092919081815260200182805461096c90611ddc565b80156109b95780601f1061098e576101008083540402835291602001916109b9565b820191906000526020600020905b81548152906001019060200180831161099c57829003601f168201915b5050505050908060070180546109ce90611ddc565b80601f01602080910402602001604051908101604052809291908181526020018280546109fa90611ddc565b8015610a475780601f10610a1c57610100808354040283529160200191610a47565b820191906000526020600020905b815481529060010190602001808311610a2a57829003601f168201915b505050505090806008018054610a5c90611ddc565b80601f0160208091040260200160405190810160405280929190818152602001828054610a8890611ddc565b8015610ad55780601f10610aaa57610100808354040283529160200191610ad5565b820191906000526020600020905b815481529060010190602001808311610ab857829003601f168201915b505050505090806009018054610aea90611ddc565b80601f0160208091040260200160405190810160405280929190818152602001828054610b1690611ddc565b8015610b635780601f10610b3857610100808354040283529160200191610b63565b820191906000526020600020905b815481529060010190602001808311610b4657829003601f168201915b50505050509080600a018054610b7890611ddc565b80601f0160208091040260200160405190810160405280929190818152602001828054610ba490611ddc565b8015610bf15780601f10610bc657610100808354040283529160200191610bf1565b820191906000526020600020905b815481529060010190602001808311610bd457829003601f168201915b505050505090508b565b6000546001600160a01b03163314610c255760405162461bcd60e51b815260040161025c90611e64565b60008281526001602081905260409091209081018054610c4490611ddc565b9050600003610c655760405162461bcd60e51b815260040161025c90611e16565b60058101610c738382611efe565b50827fce61af97ffbd99723d7212ed29cb809d84dae7dac847367605ca62bf49177e4983604051610ca49190611fbe565b60405180910390a2505050565b6000546001600160a01b03163314610cdb5760405162461bcd60e51b815260040161025c90611e64565b600042338c604051602001610cf293929190611fd8565b60408051601f19818403018152918152815160209283012060008181526001909352912090915080610d248e82611efe565b5060018101610d338d82611efe565b5060028101610d428c82611efe565b5060038101610d518b82611efe565b5060048101610d608a82611efe565b5060058101610d6f8982611efe565b5060068101610d7e8882611efe565b5060078101610d8d8782611efe565b5060088101610d9c8682611efe565b50600a8101610dab8482611efe565b506002829080600181540180825580915050600190039060005260206000200160009091909190915055817f262bfc41e0a35d36f0844794aa95f7bbc5fbac52faa922d29e6fce44724b99978e8e8e8e8e8e8e8e8e8e8e604051610e199b9a999897969594939291906118c1565b60405180910390a250505050505050505050505050565b6000546001600160a01b03163314610e5a5760405162461bcd60e51b815260040161025c90611e64565b60008381526001602081905260409091209081018054610e7990611ddc565b9050600003610e9a5760405162461bcd60e51b815260040161025c90611e16565b600d810180546001810182556000918252602090912001610ebb8382611efe565b50600e810180546001810182556000918252602090912001610edd8482611efe565b50837f92faf369746323d1f63868e961f3b743053f65a047419794a1f393e4344a644682600e0183600d01604051610f169291906120d8565b60405180910390a250505050565b60608060608060608060608060608060606000600160008e81526020019081526020016000209050806001018054610f5b90611ddc565b9050600003610f7c5760405162461bcd60e51b815260040161025c90611e16565b806000018160010182600201836003018460040185600501866006018760070188600801896009018a600a018a8054610fb490611ddc565b80601f0160208091040260200160405190810160405280929190818152602001828054610fe090611ddc565b801561102d5780601f106110025761010080835404028352916020019161102d565b820191906000526020600020905b81548152906001019060200180831161101057829003601f168201915b50505050509a5089805461104090611ddc565b80601f016020809104026020016040519081016040528092919081815260200182805461106c90611ddc565b80156110b95780601f1061108e576101008083540402835291602001916110b9565b820191906000526020600020905b81548152906001019060200180831161109c57829003601f168201915b505050505099508880546110cc90611ddc565b80601f01602080910402602001604051908101604052809291908181526020018280546110f890611ddc565b80156111455780601f1061111a57610100808354040283529160200191611145565b820191906000526020600020905b81548152906001019060200180831161112857829003601f168201915b5050505050985087805461115890611ddc565b80601f016020809104026020016040519081016040528092919081815260200182805461118490611ddc565b80156111d15780601f106111a6576101008083540402835291602001916111d1565b820191906000526020600020905b8154815290600101906020018083116111b457829003601f168201915b505050505097508680546111e490611ddc565b80601f016020809104026020016040519081016040528092919081815260200182805461121090611ddc565b801561125d5780601f106112325761010080835404028352916020019161125d565b820191906000526020600020905b81548152906001019060200180831161124057829003601f168201915b5050505050965085805461127090611ddc565b80601f016020809104026020016040519081016040528092919081815260200182805461129c90611ddc565b80156112e95780601f106112be576101008083540402835291602001916112e9565b820191906000526020600020905b8154815290600101906020018083116112cc57829003601f168201915b505050505095508480546112fc90611ddc565b80601f016020809104026020016040519081016040528092919081815260200182805461132890611ddc565b80156113755780601f1061134a57610100808354040283529160200191611375565b820191906000526020600020905b81548152906001019060200180831161135857829003601f168201915b5050505050945083805461138890611ddc565b80601f01602080910402602001604051908101604052809291908181526020018280546113b490611ddc565b80156114015780601f106113d657610100808354040283529160200191611401565b820191906000526020600020905b8154815290600101906020018083116113e457829003601f168201915b5050505050935082805461141490611ddc565b80601f016020809104026020016040519081016040528092919081815260200182805461144090611ddc565b801561148d5780601f106114625761010080835404028352916020019161148d565b820191906000526020600020905b81548152906001019060200180831161147057829003601f168201915b505050505092508180546114a090611ddc565b80601f01602080910402602001604051908101604052809291908181526020018280546114cc90611ddc565b80156115195780601f106114ee57610100808354040283529160200191611519565b820191906000526020600020905b8154815290600101906020018083116114fc57829003601f168201915b5050505050915080805461152c90611ddc565b80601f016020809104026020016040519081016040528092919081815260200182805461155890611ddc565b80156115a55780601f1061157a576101008083540402835291602001916115a5565b820191906000526020600020905b81548152906001019060200180831161158857829003601f168201915b505050505090509b509b509b509b509b509b509b509b509b509b509b505091939597999b90929496989a50565b600281815481106115e257600080fd5b600091825260209091200154905081565b6000546001600160a01b0316331461161d5760405162461bcd60e51b815260040161025c90611e64565b60008381526001602090815260409091208351909161164391600b84019186019061169f565b50815161165990600c830190602085019061169f565b507f22aa668fcd3e4775cba7f83452d975865191335fee47a72a26f027fb986cdcc381600b0182600c016040516116919291906120d8565b60405180910390a150505050565b8280548282559060005260206000209081019282156116e5579160200282015b828111156116e557825182906116d59082611efe565b50916020019190600101906116bf565b506116f19291506116f5565b5090565b808211156116f15760006117098282611712565b506001016116f5565b50805461171e90611ddc565b6000825580601f1061172e575050565b601f01602090049060005260206000209081019061174c919061174f565b50565b5b808211156116f15760008155600101611750565b6020808252825182820181905260009190848201906040850190845b8181101561179c57835183529284019291840191600101611780565b50909695505050505050565b6000602082840312156117ba57600080fd5b5035919050565b60005b838110156117dc5781810151838201526020016117c4565b50506000910152565b600081518084526117fd8160208601602086016117c1565b601f01601f19169290920160200192915050565b600082825180855260208086019550808260051b84010181860160005b8481101561185c57601f1986840301895261184a8383516117e5565b9884019892509083019060010161182e565b5090979650505050505050565b60808152600061187c6080830187611811565b828103602084015261188e8187611811565b905082810360408401526118a28186611811565b905082810360608401526118b68185611811565b979650505050505050565b60006101608083526118d58184018f6117e5565b905082810360208401526118e9818e6117e5565b905082810360408401526118fd818d6117e5565b90508281036060840152611911818c6117e5565b90508281036080840152611925818b6117e5565b905082810360a0840152611939818a6117e5565b905082810360c084015261194d81896117e5565b905082810360e084015261196181886117e5565b905082810361010084015261197681876117e5565b905082810361012084015261198b81866117e5565b90508281036101408401526119a081856117e5565b9e9d5050505050505050505050505050565b634e487b7160e01b600052604160045260246000fd5b604051601f8201601f1916810167ffffffffffffffff811182821017156119f1576119f16119b2565b604052919050565b600082601f830112611a0a57600080fd5b813567ffffffffffffffff811115611a2457611a246119b2565b611a37601f8201601f19166020016119c8565b818152846020838601011115611a4c57600080fd5b816020850160208301376000918101602001919091529392505050565b60008060408385031215611a7c57600080fd5b82359150602083013567ffffffffffffffff811115611a9a57600080fd5b611aa6858286016119f9565b9150509250929050565b60008060008060008060008060008060006101608c8e031215611ad257600080fd5b67ffffffffffffffff808d351115611ae957600080fd5b611af68e8e358f016119f9565b9b508060208e01351115611b0957600080fd5b611b198e60208f01358f016119f9565b9a508060408e01351115611b2c57600080fd5b611b3c8e60408f01358f016119f9565b99508060608e01351115611b4f57600080fd5b611b5f8e60608f01358f016119f9565b98508060808e01351115611b7257600080fd5b611b828e60808f01358f016119f9565b97508060a08e01351115611b9557600080fd5b611ba58e60a08f01358f016119f9565b96508060c08e01351115611bb857600080fd5b611bc88e60c08f01358f016119f9565b95508060e08e01351115611bdb57600080fd5b611beb8e60e08f01358f016119f9565b9450806101008e01351115611bff57600080fd5b611c108e6101008f01358f016119f9565b9350806101208e01351115611c2457600080fd5b611c358e6101208f01358f016119f9565b9250806101408e01351115611c4957600080fd5b50611c5b8d6101408e01358e016119f9565b90509295989b509295989b9093969950565b600080600060608486031215611c8257600080fd5b83359250602084013567ffffffffffffffff80821115611ca157600080fd5b611cad878388016119f9565b93506040860135915080821115611cc357600080fd5b50611cd0868287016119f9565b9150509250925092565b600082601f830112611ceb57600080fd5b8135602067ffffffffffffffff80831115611d0857611d086119b2565b8260051b611d178382016119c8565b9384528581018301938381019088861115611d3157600080fd5b84880192505b85831015611d6d57823584811115611d4f5760008081fd5b611d5d8a87838c01016119f9565b8352509184019190840190611d37565b98975050505050505050565b600080600060608486031215611d8e57600080fd5b83359250602084013567ffffffffffffffff80821115611dad57600080fd5b611db987838801611cda565b93506040860135915080821115611dcf57600080fd5b50611cd086828701611cda565b600181811c90821680611df057607f821691505b602082108103611e1057634e487b7160e01b600052602260045260246000fd5b50919050565b6020808252602e908201527f4461746120776974682074686973207472616e73616374696f6e20686173682060408201526d191bd95cc81b9bdd08195e1a5cdd60921b606082015260800190565b6020808252602b908201527f4f6e6c79207468652063726561746f722063616e20706572666f726d2074686960408201526a399037b832b930ba34b7b760a91b606082015260800190565b601f821115611ef957600081815260208120601f850160051c81016020861015611ed65750805b601f850160051c820191505b81811015611ef557828155600101611ee2565b5050505b505050565b815167ffffffffffffffff811115611f1857611f186119b2565b611f2c81611f268454611ddc565b84611eaf565b602080601f831160018114611f615760008415611f495750858301515b600019600386901b1c1916600185901b178555611ef5565b600085815260208120601f198616915b82811015611f9057888601518255948401946001909101908401611f71565b5085821015611fae5787850151600019600388901b60f8161c191681555b5050505050600190811b01905550565b602081526000611fd160208301846117e5565b9392505050565b8381526bffffffffffffffffffffffff198360601b166020820152600082516120088160348501602087016117c1565b91909101603401949350505050565b600081548084526020808501808196506005915083821b81016000878152848120815b878110156120c9578484038b5282825461205381611ddc565b8087526001828116801561206e5760018114612087576120b2565b60ff198416898d01528215158b1b89018c0194506120b2565b8688528b8820885b848110156120aa5781548b82018f0152908301908d0161208f565b8a018d019550505b509d8a019d9296505050919091019060010161203a565b50919998505050505050505050565b6040815260006120eb6040830185612017565b82810360208401526120fd8185612017565b9594505050505056fea26469706673582212202ae9bdc426f85bc87b09b0feae86e3de000124177564c5bdb07ff6d82db4598c64736f6c63430008130033",
    "sourcePath": "d:/Work/Project_Code/Second Part/Shippify/blockchain/src/newContract.sol",
    "compiler": {
        "name": "solc",
        "version": "0.8.19+commit.7dd6d404"
    },
    "functionHashes": {
        "createData(string,string,string,string,string,string,string,string,string,string,string)": "b3dc7a5f",
        "creator()": "02d05d3f",
        "dataKeys(uint256)": "ec89dc1c",
        "dataMap(bytes32)": "46bcad62",
        "getAllData()": "2d10fa28",
        "getDataByTransactionHash(bytes32)": "e346b00b",
        "getInstalmentDataByTransactionHash(bytes32)": "2d3ab0c0",
        "setInstallmentData(bytes32,string[],string[])": "fbabfd0b",
        "updateInstalment(bytes32,string,string)": "d01dcb58",
        "updateStatus(bytes32,string)": "70399a55"
    },
    "gasEstimates": {
        "creation": {
            "codeDepositCost": "1701600",
            "executionCost": "26020",
            "totalCost": "1727620"
        },
        "external": {
            "createData(string,string,string,string,string,string,string,string,string,string,string)": "infinite",
            "creator()": "2327",
            "dataKeys(uint256)": "4641",
            "dataMap(bytes32)": "infinite",
            "getAllData()": "infinite",
            "getDataByTransactionHash(bytes32)": "infinite",
            "getInstalmentDataByTransactionHash(bytes32)": "infinite",
            "setInstallmentData(bytes32,string[],string[])": "infinite",
            "updateInstalment(bytes32,string,string)": "infinite",
            "updateStatus(bytes32,string)": "infinite"
        }
    }
}