{
    "contractName": "DataStorage",
    "abi": [
        {
            "inputs": [],
            "stateMutability": "nonpayable",
            "type": "constructor"
        },
        {
            "anonymous": false,
            "inputs": [
                {
                    "indexed": true,
                    "internalType": "bytes32",
                    "name": "transactionHash",
                    "type": "bytes32"
                },
                {
                    "indexed": false,
                    "internalType": "string",
                    "name": "userId",
                    "type": "string"
                },
                {
                    "indexed": false,
                    "internalType": "string",
                    "name": "username",
                    "type": "string"
                },
                {
                    "indexed": false,
                    "internalType": "string",
                    "name": "shipmentServiceCode",
                    "type": "string"
                },
                {
                    "indexed": false,
                    "internalType": "string",
                    "name": "carrierName",
                    "type": "string"
                },
                {
                    "indexed": false,
                    "internalType": "string",
                    "name": "createdAt",
                    "type": "string"
                },
                {
                    "indexed": false,
                    "internalType": "string",
                    "name": "status",
                    "type": "string"
                },
                {
                    "indexed": false,
                    "internalType": "uint256",
                    "name": "selectedRate",
                    "type": "uint256"
                },
                {
                    "indexed": false,
                    "internalType": "uint256",
                    "name": "noOfInstallments",
                    "type": "uint256"
                },
                {
                    "indexed": false,
                    "internalType": "uint256",
                    "name": "netPayable",
                    "type": "uint256"
                },
                {
                    "indexed": false,
                    "internalType": "uint256",
                    "name": "insuranceAmount",
                    "type": "uint256"
                }
            ],
            "name": "DataCreated",
            "type": "event"
        },
        {
            "anonymous": false,
            "inputs": [
                {
                    "indexed": true,
                    "internalType": "bytes32",
                    "name": "transactionHash",
                    "type": "bytes32"
                },
                {
                    "indexed": false,
                    "internalType": "string[]",
                    "name": "paidAmount",
                    "type": "string[]"
                },
                {
                    "indexed": false,
                    "internalType": "string[]",
                    "name": "paymentDate",
                    "type": "string[]"
                }
            ],
            "name": "PaidAmountUpdated",
            "type": "event"
        },
        {
            "anonymous": false,
            "inputs": [
                {
                    "indexed": true,
                    "internalType": "bytes32",
                    "name": "transactionHash",
                    "type": "bytes32"
                },
                {
                    "indexed": false,
                    "internalType": "string",
                    "name": "status",
                    "type": "string"
                }
            ],
            "name": "StatusUpdated",
            "type": "event"
        },
        {
            "anonymous": false,
            "inputs": [
                {
                    "indexed": false,
                    "internalType": "string[]",
                    "name": "instalmentDeadLine",
                    "type": "string[]"
                },
                {
                    "indexed": false,
                    "internalType": "string[]",
                    "name": "payableAmount",
                    "type": "string[]"
                }
            ],
            "name": "updateInstalmentData",
            "type": "event"
        },
        {
            "inputs": [
                {
                    "internalType": "string",
                    "name": "_userId",
                    "type": "string"
                },
                {
                    "internalType": "string",
                    "name": "_username",
                    "type": "string"
                },
                {
                    "internalType": "string",
                    "name": "_shipmentServiceCode",
                    "type": "string"
                },
                {
                    "internalType": "string",
                    "name": "_carrierName",
                    "type": "string"
                },
                {
                    "internalType": "string",
                    "name": "_createdAt",
                    "type": "string"
                },
                {
                    "internalType": "string",
                    "name": "_status",
                    "type": "string"
                },
                {
                    "internalType": "uint256",
                    "name": "_selectedRate",
                    "type": "uint256"
                },
                {
                    "internalType": "uint256",
                    "name": "_noOfInstallments",
                    "type": "uint256"
                },
                {
                    "internalType": "uint256",
                    "name": "_netPayable",
                    "type": "uint256"
                },
                {
                    "internalType": "uint256",
                    "name": "_insuranceAmount",
                    "type": "uint256"
                }
            ],
            "name": "createData",
            "outputs": [],
            "stateMutability": "nonpayable",
            "type": "function"
        },
        {
            "inputs": [],
            "name": "creator",
            "outputs": [
                {
                    "internalType": "address",
                    "name": "",
                    "type": "address"
                }
            ],
            "stateMutability": "view",
            "type": "function"
        },
        {
            "inputs": [
                {
                    "internalType": "uint256",
                    "name": "",
                    "type": "uint256"
                }
            ],
            "name": "dataKeys",
            "outputs": [
                {
                    "internalType": "bytes32",
                    "name": "",
                    "type": "bytes32"
                }
            ],
            "stateMutability": "view",
            "type": "function"
        },
        {
            "inputs": [
                {
                    "internalType": "bytes32",
                    "name": "",
                    "type": "bytes32"
                }
            ],
            "name": "dataMap",
            "outputs": [
                {
                    "internalType": "string",
                    "name": "userId",
                    "type": "string"
                },
                {
                    "internalType": "string",
                    "name": "username",
                    "type": "string"
                },
                {
                    "internalType": "string",
                    "name": "shipmentServiceCode",
                    "type": "string"
                },
                {
                    "internalType": "string",
                    "name": "carrierName",
                    "type": "string"
                },
                {
                    "internalType": "string",
                    "name": "createdAt",
                    "type": "string"
                },
                {
                    "internalType": "string",
                    "name": "status",
                    "type": "string"
                },
                {
                    "internalType": "uint256",
                    "name": "selectedRate",
                    "type": "uint256"
                },
                {
                    "internalType": "uint256",
                    "name": "noOfInstallments",
                    "type": "uint256"
                },
                {
                    "internalType": "uint256",
                    "name": "netPayable",
                    "type": "uint256"
                },
                {
                    "internalType": "uint256",
                    "name": "insuranceAmount",
                    "type": "uint256"
                }
            ],
            "stateMutability": "view",
            "type": "function"
        },
        {
            "inputs": [],
            "name": "getAllData",
            "outputs": [
                {
                    "internalType": "bytes32[]",
                    "name": "",
                    "type": "bytes32[]"
                }
            ],
            "stateMutability": "view",
            "type": "function"
        },
        {
            "inputs": [
                {
                    "internalType": "bytes32",
                    "name": "_transactionHash",
                    "type": "bytes32"
                }
            ],
            "name": "getDataByTransactionHash",
            "outputs": [
                {
                    "internalType": "string",
                    "name": "userId",
                    "type": "string"
                },
                {
                    "internalType": "string",
                    "name": "username",
                    "type": "string"
                },
                {
                    "internalType": "string",
                    "name": "shipmentServiceCode",
                    "type": "string"
                },
                {
                    "internalType": "string",
                    "name": "carrierName",
                    "type": "string"
                },
                {
                    "internalType": "string",
                    "name": "createdAt",
                    "type": "string"
                },
                {
                    "internalType": "string",
                    "name": "status",
                    "type": "string"
                },
                {
                    "internalType": "uint256",
                    "name": "selectedRate",
                    "type": "uint256"
                },
                {
                    "internalType": "uint256",
                    "name": "noOfInstallments",
                    "type": "uint256"
                },
                {
                    "internalType": "uint256",
                    "name": "netPayable",
                    "type": "uint256"
                },
                {
                    "internalType": "uint256",
                    "name": "insuranceAmount",
                    "type": "uint256"
                }
            ],
            "stateMutability": "view",
            "type": "function"
        },
        {
            "inputs": [
                {
                    "internalType": "bytes32",
                    "name": "_transactionHash",
                    "type": "bytes32"
                }
            ],
            "name": "getInstalmentDataByTransactionHash",
            "outputs": [
                {
                    "internalType": "string[]",
                    "name": "instalmentDeadLine",
                    "type": "string[]"
                },
                {
                    "internalType": "string[]",
                    "name": "payableAmount",
                    "type": "string[]"
                },
                {
                    "internalType": "string[]",
                    "name": "paymentDate",
                    "type": "string[]"
                },
                {
                    "internalType": "string[]",
                    "name": "paidAmount",
                    "type": "string[]"
                }
            ],
            "stateMutability": "view",
            "type": "function"
        },
        {
            "inputs": [
                {
                    "internalType": "bytes32",
                    "name": "_transactionHash",
                    "type": "bytes32"
                },
                {
                    "internalType": "string[]",
                    "name": "_instalmentDeadLine",
                    "type": "string[]"
                },
                {
                    "internalType": "string[]",
                    "name": "_payableAmount",
                    "type": "string[]"
                }
            ],
            "name": "setInstallmentData",
            "outputs": [],
            "stateMutability": "nonpayable",
            "type": "function"
        },
        {
            "inputs": [
                {
                    "internalType": "bytes32",
                    "name": "_transactionHash",
                    "type": "bytes32"
                },
                {
                    "internalType": "string",
                    "name": "_paidAmount",
                    "type": "string"
                },
                {
                    "internalType": "string",
                    "name": "_paymentDate",
                    "type": "string"
                }
            ],
            "name": "updatePaidAmount",
            "outputs": [],
            "stateMutability": "nonpayable",
            "type": "function"
        },
        {
            "inputs": [
                {
                    "internalType": "bytes32",
                    "name": "_transactionHash",
                    "type": "bytes32"
                },
                {
                    "internalType": "string",
                    "name": "_status",
                    "type": "string"
                }
            ],
            "name": "updateStatus",
            "outputs": [],
            "stateMutability": "nonpayable",
            "type": "function"
        }
    ],
    "bytecode": "608060405234801561001057600080fd5b50600080546001600160a01b03191633179055611a9a806100326000396000f3fe608060405234801561001057600080fd5b506004361061009e5760003560e01c8063e346b00b11610066578063e346b00b14610149578063e5d6d89b1461015c578063ec89dc1c1461016f578063eea33dac14610190578063fbabfd0b146101a357600080fd5b806302d05d3f146100a35780632d10fa28146100d35780632d3ab0c0146100e857806346bcad621461010b57806370399a5514610134575b600080fd5b6000546100b6906001600160a01b031681565b6040516001600160a01b0390911681526020015b60405180910390f35b6100db6101b6565b6040516100ca91906111ad565b6100fb6100f63660046111f1565b61020e565b6040516100ca94939291906112b2565b61011e6101193660046111f1565b6105d0565b6040516100ca9a9998979695949392919061130a565b610147610142366004611465565b61094c565b005b61011e6101573660046111f1565b610a02565b61014761016a3660046114ac565b610dee565b61018261017d3660046111f1565b610f51565b6040519081526020016100ca565b61014761019e3660046115cb565b610f72565b6101476101b13660046116d7565b611066565b6060600280548060200260200160405190810160405280929190818152602001828054801561020457602002820191906000526020600020905b8154815260200190600101908083116101f0575b5050505050905090565b606080606080600060016000878152602001908152602001600020905080600101805461023a9061173a565b90506000036102645760405162461bcd60e51b815260040161025b90611774565b60405180910390fd5b80600a0181600b0182600c0183600d0183805480602002602001604051908101604052809291908181526020016000905b828210156103415783829060005260206000200180546102b49061173a565b80601f01602080910402602001604051908101604052809291908181526020018280546102e09061173a565b801561032d5780601f106103025761010080835404028352916020019161032d565b820191906000526020600020905b81548152906001019060200180831161031057829003601f168201915b505050505081526020019060010190610295565b50505050935082805480602002602001604051908101604052809291908181526020016000905b828210156104145783829060005260206000200180546103879061173a565b80601f01602080910402602001604051908101604052809291908181526020018280546103b39061173a565b80156104005780601f106103d557610100808354040283529160200191610400565b820191906000526020600020905b8154815290600101906020018083116103e357829003601f168201915b505050505081526020019060010190610368565b50505050925081805480602002602001604051908101604052809291908181526020016000905b828210156104e757838290600052602060002001805461045a9061173a565b80601f01602080910402602001604051908101604052809291908181526020018280546104869061173a565b80156104d35780601f106104a8576101008083540402835291602001916104d3565b820191906000526020600020905b8154815290600101906020018083116104b657829003601f168201915b50505050508152602001906001019061043b565b50505050915080805480602002602001604051908101604052809291908181526020016000905b828210156105ba57838290600052602060002001805461052d9061173a565b80601f01602080910402602001604051908101604052809291908181526020018280546105599061173a565b80156105a65780601f1061057b576101008083540402835291602001916105a6565b820191906000526020600020905b81548152906001019060200180831161058957829003601f168201915b50505050508152602001906001019061050e565b5050505090509450945094509450509193509193565b6001602052600090815260409020805481906105eb9061173a565b80601f01602080910402602001604051908101604052809291908181526020018280546106179061173a565b80156106645780601f1061063957610100808354040283529160200191610664565b820191906000526020600020905b81548152906001019060200180831161064757829003601f168201915b5050505050908060010180546106799061173a565b80601f01602080910402602001604051908101604052809291908181526020018280546106a59061173a565b80156106f25780601f106106c7576101008083540402835291602001916106f2565b820191906000526020600020905b8154815290600101906020018083116106d557829003601f168201915b5050505050908060020180546107079061173a565b80601f01602080910402602001604051908101604052809291908181526020018280546107339061173a565b80156107805780601f1061075557610100808354040283529160200191610780565b820191906000526020600020905b81548152906001019060200180831161076357829003601f168201915b5050505050908060030180546107959061173a565b80601f01602080910402602001604051908101604052809291908181526020018280546107c19061173a565b801561080e5780601f106107e35761010080835404028352916020019161080e565b820191906000526020600020905b8154815290600101906020018083116107f157829003601f168201915b5050505050908060040180546108239061173a565b80601f016020809104026020016040519081016040528092919081815260200182805461084f9061173a565b801561089c5780601f106108715761010080835404028352916020019161089c565b820191906000526020600020905b81548152906001019060200180831161087f57829003601f168201915b5050505050908060050180546108b19061173a565b80601f01602080910402602001604051908101604052809291908181526020018280546108dd9061173a565b801561092a5780601f106108ff5761010080835404028352916020019161092a565b820191906000526020600020905b81548152906001019060200180831161090d57829003601f168201915b505050505090806006015490806007015490806008015490806009015490508a565b6000546001600160a01b031633146109765760405162461bcd60e51b815260040161025b906117c2565b600082815260016020819052604090912090810180546109959061173a565b90506000036109b65760405162461bcd60e51b815260040161025b90611774565b600581016109c4838261185c565b50827fce61af97ffbd99723d7212ed29cb809d84dae7dac847367605ca62bf49177e49836040516109f5919061191c565b60405180910390a2505050565b6060806060806060806000806000806000600160008d81526020019081526020016000209050806001018054610a379061173a565b9050600003610a585760405162461bcd60e51b815260040161025b90611774565b8060000181600101826002018360030184600401856005018660060154876007015488600801548960090154898054610a909061173a565b80601f0160208091040260200160405190810160405280929190818152602001828054610abc9061173a565b8015610b095780601f10610ade57610100808354040283529160200191610b09565b820191906000526020600020905b815481529060010190602001808311610aec57829003601f168201915b50505050509950888054610b1c9061173a565b80601f0160208091040260200160405190810160405280929190818152602001828054610b489061173a565b8015610b955780601f10610b6a57610100808354040283529160200191610b95565b820191906000526020600020905b815481529060010190602001808311610b7857829003601f168201915b50505050509850878054610ba89061173a565b80601f0160208091040260200160405190810160405280929190818152602001828054610bd49061173a565b8015610c215780601f10610bf657610100808354040283529160200191610c21565b820191906000526020600020905b815481529060010190602001808311610c0457829003601f168201915b50505050509750868054610c349061173a565b80601f0160208091040260200160405190810160405280929190818152602001828054610c609061173a565b8015610cad5780601f10610c8257610100808354040283529160200191610cad565b820191906000526020600020905b815481529060010190602001808311610c9057829003601f168201915b50505050509650858054610cc09061173a565b80601f0160208091040260200160405190810160405280929190818152602001828054610cec9061173a565b8015610d395780601f10610d0e57610100808354040283529160200191610d39565b820191906000526020600020905b815481529060010190602001808311610d1c57829003601f168201915b50505050509550848054610d4c9061173a565b80601f0160208091040260200160405190810160405280929190818152602001828054610d789061173a565b8015610dc55780601f10610d9a57610100808354040283529160200191610dc5565b820191906000526020600020905b815481529060010190602001808311610da857829003601f168201915b505050505094509a509a509a509a509a509a509a509a509a509a50509193959799509193959799565b6000546001600160a01b03163314610e185760405162461bcd60e51b815260040161025b906117c2565b600042338b604051602001610e2f93929190611936565b60408051601f19818403018152918152815160209283012060008181526001909352912090915080610e618d8261185c565b5060018101610e708c8261185c565b5060028101610e7f8b8261185c565b5060038101610e8e8a8261185c565b5060048101610e9d898261185c565b5060058101610eac888261185c565b50600681018690556007810185905560088101849055600280546001810182556000919091527f405787fa12a823e0f2b7631cc41b3ba8828b3321ca811111fa75cd3aa3bb5ace0182905560405182907fcac1669646c2a3b74db39946943e7b9acb78e26891322689b587f5460aea845790610f3b908f908f908f908f908f908f908f908f908f908f9061130a565b60405180910390a2505050505050505050505050565b60028181548110610f6157600080fd5b600091825260209091200154905081565b6000546001600160a01b03163314610f9c5760405162461bcd60e51b815260040161025b906117c2565b60008381526001602081905260409091209081018054610fbb9061173a565b9050600003610fdc5760405162461bcd60e51b815260040161025b90611774565b600c810180546001810182556000918252602090912001610ffd838261185c565b50600d81018054600181018255600091825260209091200161101f848261185c565b50837f92faf369746323d1f63868e961f3b743053f65a047419794a1f393e4344a644682600d0183600c01604051611058929190611a36565b60405180910390a250505050565b60008381526001602090815260409091208351909161108c91600a8401918601906110e8565b5081516110a290600b83019060208501906110e8565b507f22aa668fcd3e4775cba7f83452d975865191335fee47a72a26f027fb986cdcc381600a0182600b016040516110da929190611a36565b60405180910390a150505050565b82805482825590600052602060002090810192821561112e579160200282015b8281111561112e578251829061111e908261185c565b5091602001919060010190611108565b5061113a92915061113e565b5090565b8082111561113a576000611152828261115b565b5060010161113e565b5080546111679061173a565b6000825580601f10611177575050565b601f0160209004906000526020600020908101906111959190611198565b50565b5b8082111561113a5760008155600101611199565b6020808252825182820181905260009190848201906040850190845b818110156111e5578351835292840192918401916001016111c9565b50909695505050505050565b60006020828403121561120357600080fd5b5035919050565b60005b8381101561122557818101518382015260200161120d565b50506000910152565b6000815180845261124681602086016020860161120a565b601f01601f19169290920160200192915050565b600082825180855260208086019550808260051b84010181860160005b848110156112a557601f1986840301895261129383835161122e565b98840198925090830190600101611277565b5090979650505050505050565b6080815260006112c5608083018761125a565b82810360208401526112d7818761125a565b905082810360408401526112eb818661125a565b905082810360608401526112ff818561125a565b979650505050505050565b600061014080835261131e8184018e61122e565b90508281036020840152611332818d61122e565b90508281036040840152611346818c61122e565b9050828103606084015261135a818b61122e565b9050828103608084015261136e818a61122e565b905082810360a0840152611382818961122e565b9150508560c08301528460e083015283610100830152826101208301529b9a5050505050505050505050565b634e487b7160e01b600052604160045260246000fd5b604051601f8201601f1916810167ffffffffffffffff811182821017156113ed576113ed6113ae565b604052919050565b600082601f83011261140657600080fd5b813567ffffffffffffffff811115611420576114206113ae565b611433601f8201601f19166020016113c4565b81815284602083860101111561144857600080fd5b816020850160208301376000918101602001919091529392505050565b6000806040838503121561147857600080fd5b82359150602083013567ffffffffffffffff81111561149657600080fd5b6114a2858286016113f5565b9150509250929050565b6000806000806000806000806000806101408b8d0312156114cc57600080fd5b8a3567ffffffffffffffff808211156114e457600080fd5b6114f08e838f016113f5565b9b5060208d013591508082111561150657600080fd5b6115128e838f016113f5565b9a5060408d013591508082111561152857600080fd5b6115348e838f016113f5565b995060608d013591508082111561154a57600080fd5b6115568e838f016113f5565b985060808d013591508082111561156c57600080fd5b6115788e838f016113f5565b975060a08d013591508082111561158e57600080fd5b5061159b8d828e016113f5565b95505060c08b0135935060e08b013592506101008b013591506101208b013590509295989b9194979a5092959850565b6000806000606084860312156115e057600080fd5b83359250602084013567ffffffffffffffff808211156115ff57600080fd5b61160b878388016113f5565b9350604086013591508082111561162157600080fd5b5061162e868287016113f5565b9150509250925092565b600082601f83011261164957600080fd5b8135602067ffffffffffffffff80831115611666576116666113ae565b8260051b6116758382016113c4565b938452858101830193838101908886111561168f57600080fd5b84880192505b858310156116cb578235848111156116ad5760008081fd5b6116bb8a87838c01016113f5565b8352509184019190840190611695565b98975050505050505050565b6000806000606084860312156116ec57600080fd5b83359250602084013567ffffffffffffffff8082111561170b57600080fd5b61171787838801611638565b9350604086013591508082111561172d57600080fd5b5061162e86828701611638565b600181811c9082168061174e57607f821691505b60208210810361176e57634e487b7160e01b600052602260045260246000fd5b50919050565b6020808252602e908201527f4461746120776974682074686973207472616e73616374696f6e20686173682060408201526d191bd95cc81b9bdd08195e1a5cdd60921b606082015260800190565b6020808252602b908201527f4f6e6c79207468652063726561746f722063616e20706572666f726d2074686960408201526a399037b832b930ba34b7b760a91b606082015260800190565b601f82111561185757600081815260208120601f850160051c810160208610156118345750805b601f850160051c820191505b8181101561185357828155600101611840565b5050505b505050565b815167ffffffffffffffff811115611876576118766113ae565b61188a81611884845461173a565b8461180d565b602080601f8311600181146118bf57600084156118a75750858301515b600019600386901b1c1916600185901b178555611853565b600085815260208120601f198616915b828110156118ee578886015182559484019460019091019084016118cf565b508582101561190c5787850151600019600388901b60f8161c191681555b5050505050600190811b01905550565b60208152600061192f602083018461122e565b9392505050565b8381526bffffffffffffffffffffffff198360601b1660208201526000825161196681603485016020870161120a565b91909101603401949350505050565b600081548084526020808501808196506005915083821b81016000878152848120815b87811015611a27578484038b528282546119b18161173a565b808752600182811680156119cc57600181146119e557611a10565b60ff198416898d01528215158b1b89018c019450611a10565b8688528b8820885b84811015611a085781548b82018f0152908301908d016119ed565b8a018d019550505b509d8a019d92965050509190910190600101611998565b50919998505050505050505050565b604081526000611a496040830185611975565b8281036020840152611a5b8185611975565b9594505050505056fea264697066735822122035ccc0c066c756d1eedb59cd40af75ee984bfc2a4ac0eb190222f0547248650564736f6c63430008130033",
    "sourcePath": "d:/Work/Project_Code/Second Part/Shippify/blockchain/src/newContract.sol",
    "compiler": {
        "name": "solc",
        "version": "0.8.19+commit.7dd6d404"
    },
    "functionHashes": {
        "createData(string,string,string,string,string,string,uint256,uint256,uint256,uint256)": "e5d6d89b",
        "creator()": "02d05d3f",
        "dataKeys(uint256)": "ec89dc1c",
        "dataMap(bytes32)": "46bcad62",
        "getAllData()": "2d10fa28",
        "getDataByTransactionHash(bytes32)": "e346b00b",
        "getInstalmentDataByTransactionHash(bytes32)": "2d3ab0c0",
        "setInstallmentData(bytes32,string[],string[])": "fbabfd0b",
        "updatePaidAmount(bytes32,string,string)": "eea33dac",
        "updateStatus(bytes32,string)": "70399a55"
    },
    "gasEstimates": {
        "creation": {
            "codeDepositCost": "1362000",
            "executionCost": "25652",
            "totalCost": "1387652"
        },
        "external": {
            "createData(string,string,string,string,string,string,uint256,uint256,uint256,uint256)": "infinite",
            "creator()": "2327",
            "dataKeys(uint256)": "4619",
            "dataMap(bytes32)": "infinite",
            "getAllData()": "infinite",
            "getDataByTransactionHash(bytes32)": "infinite",
            "getInstalmentDataByTransactionHash(bytes32)": "infinite",
            "setInstallmentData(bytes32,string[],string[])": "infinite",
            "updatePaidAmount(bytes32,string,string)": "infinite",
            "updateStatus(bytes32,string)": "infinite"
        }
    }
}