{
    "contractName": "Shipping",
    "abi": [
        {
            "inputs": [
                {
                    "internalType": "address",
                    "name": "_owner",
                    "type": "address"
                },
                {
                    "internalType": "string",
                    "name": "_userId",
                    "type": "string"
                },
                {
                    "internalType": "string",
                    "name": "_userName",
                    "type": "string"
                },
                {
                    "internalType": "string",
                    "name": "_shipmentServiceCode",
                    "type": "string"
                },
                {
                    "internalType": "string",
                    "name": "_carrierName",
                    "type": "string"
                },
                {
                    "internalType": "string",
                    "name": "_createdAt",
                    "type": "string"
                },
                {
                    "internalType": "string",
                    "name": "_seelectedRate",
                    "type": "string"
                },
                {
                    "internalType": "string",
                    "name": "_status",
                    "type": "string"
                }
            ],
            "name": "createShipment",
            "outputs": [
                {
                    "internalType": "uint256",
                    "name": "",
                    "type": "uint256"
                }
            ],
            "stateMutability": "nonpayable",
            "type": "function"
        },
        {
            "inputs": [],
            "name": "numberOfShipments",
            "outputs": [
                {
                    "internalType": "uint256",
                    "name": "",
                    "type": "uint256"
                }
            ],
            "stateMutability": "view",
            "type": "function"
        },
        {
            "inputs": [],
            "name": "shipmentList",
            "outputs": [
                {
                    "components": [
                        {
                            "internalType": "address",
                            "name": "owner",
                            "type": "address"
                        },
                        {
                            "internalType": "string",
                            "name": "userId",
                            "type": "string"
                        },
                        {
                            "internalType": "string",
                            "name": "userName",
                            "type": "string"
                        },
                        {
                            "internalType": "string",
                            "name": "shipmentServiceCode",
                            "type": "string"
                        },
                        {
                            "internalType": "string",
                            "name": "carrierName",
                            "type": "string"
                        },
                        {
                            "internalType": "string",
                            "name": "createdAt",
                            "type": "string"
                        },
                        {
                            "internalType": "string",
                            "name": "seelectedRate",
                            "type": "string"
                        },
                        {
                            "internalType": "string",
                            "name": "status",
                            "type": "string"
                        }
                    ],
                    "internalType": "struct Shipping.Shipment[]",
                    "name": "",
                    "type": "tuple[]"
                }
            ],
            "stateMutability": "view",
            "type": "function"
        },
        {
            "inputs": [
                {
                    "internalType": "uint256",
                    "name": "",
                    "type": "uint256"
                }
            ],
            "name": "shipments",
            "outputs": [
                {
                    "internalType": "address",
                    "name": "owner",
                    "type": "address"
                },
                {
                    "internalType": "string",
                    "name": "userId",
                    "type": "string"
                },
                {
                    "internalType": "string",
                    "name": "userName",
                    "type": "string"
                },
                {
                    "internalType": "string",
                    "name": "shipmentServiceCode",
                    "type": "string"
                },
                {
                    "internalType": "string",
                    "name": "carrierName",
                    "type": "string"
                },
                {
                    "internalType": "string",
                    "name": "createdAt",
                    "type": "string"
                },
                {
                    "internalType": "string",
                    "name": "seelectedRate",
                    "type": "string"
                },
                {
                    "internalType": "string",
                    "name": "status",
                    "type": "string"
                }
            ],
            "stateMutability": "view",
            "type": "function"
        },
        {
            "inputs": [
                {
                    "internalType": "uint256",
                    "name": "_id",
                    "type": "uint256"
                },
                {
                    "internalType": "string",
                    "name": "_status",
                    "type": "string"
                }
            ],
            "name": "updateShipmentStatus",
            "outputs": [
                {
                    "components": [
                        {
                            "internalType": "address",
                            "name": "owner",
                            "type": "address"
                        },
                        {
                            "internalType": "string",
                            "name": "userId",
                            "type": "string"
                        },
                        {
                            "internalType": "string",
                            "name": "userName",
                            "type": "string"
                        },
                        {
                            "internalType": "string",
                            "name": "shipmentServiceCode",
                            "type": "string"
                        },
                        {
                            "internalType": "string",
                            "name": "carrierName",
                            "type": "string"
                        },
                        {
                            "internalType": "string",
                            "name": "createdAt",
                            "type": "string"
                        },
                        {
                            "internalType": "string",
                            "name": "seelectedRate",
                            "type": "string"
                        },
                        {
                            "internalType": "string",
                            "name": "status",
                            "type": "string"
                        }
                    ],
                    "internalType": "struct Shipping.Shipment",
                    "name": "",
                    "type": "tuple"
                }
            ],
            "stateMutability": "nonpayable",
            "type": "function"
        },
        {
            "inputs": [
                {
                    "internalType": "uint256",
                    "name": "_id",
                    "type": "uint256"
                }
            ],
            "name": "userShipment",
            "outputs": [
                {
                    "components": [
                        {
                            "internalType": "address",
                            "name": "owner",
                            "type": "address"
                        },
                        {
                            "internalType": "string",
                            "name": "userId",
                            "type": "string"
                        },
                        {
                            "internalType": "string",
                            "name": "userName",
                            "type": "string"
                        },
                        {
                            "internalType": "string",
                            "name": "shipmentServiceCode",
                            "type": "string"
                        },
                        {
                            "internalType": "string",
                            "name": "carrierName",
                            "type": "string"
                        },
                        {
                            "internalType": "string",
                            "name": "createdAt",
                            "type": "string"
                        },
                        {
                            "internalType": "string",
                            "name": "seelectedRate",
                            "type": "string"
                        },
                        {
                            "internalType": "string",
                            "name": "status",
                            "type": "string"
                        }
                    ],
                    "internalType": "struct Shipping.Shipment",
                    "name": "",
                    "type": "tuple"
                }
            ],
            "stateMutability": "view",
            "type": "function"
        }
    ],
    "bytecode": "6080604052600060015534801561001557600080fd5b50611a6f806100256000396000f3fe608060405234801561001057600080fd5b50600436106100625760003560e01c80632ac08a931461006757806356baa420146100975780639b074a6f146100ac578063cb68065a146100cc578063f603afb2146100e3578063f6c58b25146100f6575b600080fd5b61007a610075366004611417565b610109565b60405161008e989796959493929190611476565b60405180910390f35b61009f61050c565b60405161008e91906115f0565b6100bf6100ba3660046116f5565b610a29565b60405161008e919061173c565b6100d560015481565b60405190815260200161008e565b6100bf6100f1366004611417565b610ec6565b6100d5610104366004611772565b611304565b600060208190529081526040902080546001820180546001600160a01b0390921692916101359061189e565b80601f01602080910402602001604051908101604052809291908181526020018280546101619061189e565b80156101ae5780601f10610183576101008083540402835291602001916101ae565b820191906000526020600020905b81548152906001019060200180831161019157829003601f168201915b5050505050908060020180546101c39061189e565b80601f01602080910402602001604051908101604052809291908181526020018280546101ef9061189e565b801561023c5780601f106102115761010080835404028352916020019161023c565b820191906000526020600020905b81548152906001019060200180831161021f57829003601f168201915b5050505050908060030180546102519061189e565b80601f016020809104026020016040519081016040528092919081815260200182805461027d9061189e565b80156102ca5780601f1061029f576101008083540402835291602001916102ca565b820191906000526020600020905b8154815290600101906020018083116102ad57829003601f168201915b5050505050908060040180546102df9061189e565b80601f016020809104026020016040519081016040528092919081815260200182805461030b9061189e565b80156103585780601f1061032d57610100808354040283529160200191610358565b820191906000526020600020905b81548152906001019060200180831161033b57829003601f168201915b50505050509080600501805461036d9061189e565b80601f01602080910402602001604051908101604052809291908181526020018280546103999061189e565b80156103e65780601f106103bb576101008083540402835291602001916103e6565b820191906000526020600020905b8154815290600101906020018083116103c957829003601f168201915b5050505050908060060180546103fb9061189e565b80601f01602080910402602001604051908101604052809291908181526020018280546104279061189e565b80156104745780601f1061044957610100808354040283529160200191610474565b820191906000526020600020905b81548152906001019060200180831161045757829003601f168201915b5050505050908060070180546104899061189e565b80601f01602080910402602001604051908101604052809291908181526020018280546104b59061189e565b80156105025780601f106104d757610100808354040283529160200191610502565b820191906000526020600020905b8154815290600101906020018083116104e557829003601f168201915b5050505050905088565b606060006001541161055e5760405162461bcd60e51b81526020600482015260166024820152754e6f20736869706d656e747320617661696c61626c6560501b60448201526064015b60405180910390fd5b600060015467ffffffffffffffff81111561057b5761057b611652565b6040519080825280602002602001820160405280156105b457816020015b6105a16113c9565b8152602001906001900390816105995790505b50905060005b600154811015610a2357600081815260208181526040918290208251610100810190935280546001600160a01b03168352600181018054919392849290840191906106049061189e565b80601f01602080910402602001604051908101604052809291908181526020018280546106309061189e565b801561067d5780601f106106525761010080835404028352916020019161067d565b820191906000526020600020905b81548152906001019060200180831161066057829003601f168201915b505050505081526020016002820180546106969061189e565b80601f01602080910402602001604051908101604052809291908181526020018280546106c29061189e565b801561070f5780601f106106e45761010080835404028352916020019161070f565b820191906000526020600020905b8154815290600101906020018083116106f257829003601f168201915b505050505081526020016003820180546107289061189e565b80601f01602080910402602001604051908101604052809291908181526020018280546107549061189e565b80156107a15780601f10610776576101008083540402835291602001916107a1565b820191906000526020600020905b81548152906001019060200180831161078457829003601f168201915b505050505081526020016004820180546107ba9061189e565b80601f01602080910402602001604051908101604052809291908181526020018280546107e69061189e565b80156108335780601f1061080857610100808354040283529160200191610833565b820191906000526020600020905b81548152906001019060200180831161081657829003601f168201915b5050505050815260200160058201805461084c9061189e565b80601f01602080910402602001604051908101604052809291908181526020018280546108789061189e565b80156108c55780601f1061089a576101008083540402835291602001916108c5565b820191906000526020600020905b8154815290600101906020018083116108a857829003601f168201915b505050505081526020016006820180546108de9061189e565b80601f016020809104026020016040519081016040528092919081815260200182805461090a9061189e565b80156109575780601f1061092c57610100808354040283529160200191610957565b820191906000526020600020905b81548152906001019060200180831161093a57829003601f168201915b505050505081526020016007820180546109709061189e565b80601f016020809104026020016040519081016040528092919081815260200182805461099c9061189e565b80156109e95780601f106109be576101008083540402835291602001916109e9565b820191906000526020600020905b8154815290600101906020018083116109cc57829003601f168201915b505050505081525050838381518110610a0457610a046118d2565b6020026020010181905250508080610a1b906118fe565b9150506105ba565b50919050565b610a316113c9565b6001548310610a825760405162461bcd60e51b815260206004820152601760248201527f536869706d656e7420646f6573206e6f742065786973740000000000000000006044820152606401610555565b600083815260208190526040902060078101610a9e8482611966565b5060408051610100810190915281546001600160a01b0316815260018201805483916020840191610ace9061189e565b80601f0160208091040260200160405190810160405280929190818152602001828054610afa9061189e565b8015610b475780601f10610b1c57610100808354040283529160200191610b47565b820191906000526020600020905b815481529060010190602001808311610b2a57829003601f168201915b50505050508152602001600282018054610b609061189e565b80601f0160208091040260200160405190810160405280929190818152602001828054610b8c9061189e565b8015610bd95780601f10610bae57610100808354040283529160200191610bd9565b820191906000526020600020905b815481529060010190602001808311610bbc57829003601f168201915b50505050508152602001600382018054610bf29061189e565b80601f0160208091040260200160405190810160405280929190818152602001828054610c1e9061189e565b8015610c6b5780601f10610c4057610100808354040283529160200191610c6b565b820191906000526020600020905b815481529060010190602001808311610c4e57829003601f168201915b50505050508152602001600482018054610c849061189e565b80601f0160208091040260200160405190810160405280929190818152602001828054610cb09061189e565b8015610cfd5780601f10610cd257610100808354040283529160200191610cfd565b820191906000526020600020905b815481529060010190602001808311610ce057829003601f168201915b50505050508152602001600582018054610d169061189e565b80601f0160208091040260200160405190810160405280929190818152602001828054610d429061189e565b8015610d8f5780601f10610d6457610100808354040283529160200191610d8f565b820191906000526020600020905b815481529060010190602001808311610d7257829003601f168201915b50505050508152602001600682018054610da89061189e565b80601f0160208091040260200160405190810160405280929190818152602001828054610dd49061189e565b8015610e215780601f10610df657610100808354040283529160200191610e21565b820191906000526020600020905b815481529060010190602001808311610e0457829003601f168201915b50505050508152602001600782018054610e3a9061189e565b80601f0160208091040260200160405190810160405280929190818152602001828054610e669061189e565b8015610eb35780601f10610e8857610100808354040283529160200191610eb3565b820191906000526020600020905b815481529060010190602001808311610e9657829003601f168201915b5050505050815250509150505b92915050565b610ece6113c9565b600082815260208181526040918290208251610100810190935280546001600160a01b0316835260018101805491939284929084019190610f0e9061189e565b80601f0160208091040260200160405190810160405280929190818152602001828054610f3a9061189e565b8015610f875780601f10610f5c57610100808354040283529160200191610f87565b820191906000526020600020905b815481529060010190602001808311610f6a57829003601f168201915b50505050508152602001600282018054610fa09061189e565b80601f0160208091040260200160405190810160405280929190818152602001828054610fcc9061189e565b80156110195780601f10610fee57610100808354040283529160200191611019565b820191906000526020600020905b815481529060010190602001808311610ffc57829003601f168201915b505050505081526020016003820180546110329061189e565b80601f016020809104026020016040519081016040528092919081815260200182805461105e9061189e565b80156110ab5780601f10611080576101008083540402835291602001916110ab565b820191906000526020600020905b81548152906001019060200180831161108e57829003601f168201915b505050505081526020016004820180546110c49061189e565b80601f01602080910402602001604051908101604052809291908181526020018280546110f09061189e565b801561113d5780601f106111125761010080835404028352916020019161113d565b820191906000526020600020905b81548152906001019060200180831161112057829003601f168201915b505050505081526020016005820180546111569061189e565b80601f01602080910402602001604051908101604052809291908181526020018280546111829061189e565b80156111cf5780601f106111a4576101008083540402835291602001916111cf565b820191906000526020600020905b8154815290600101906020018083116111b257829003601f168201915b505050505081526020016006820180546111e89061189e565b80601f01602080910402602001604051908101604052809291908181526020018280546112149061189e565b80156112615780601f1061123657610100808354040283529160200191611261565b820191906000526020600020905b81548152906001019060200180831161124457829003601f168201915b5050505050815260200160078201805461127a9061189e565b80601f01602080910402602001604051908101604052809291908181526020018280546112a69061189e565b80156112f35780601f106112c8576101008083540402835291602001916112f3565b820191906000526020600020905b8154815290600101906020018083116112d657829003601f168201915b505050505081525050915050919050565b60018054600090815260208190526040812080546001600160a01b0319166001600160a01b038c161781559091810161133d8a82611966565b506002810161134c8982611966565b506003810161135b8882611966565b506004810161136a8782611966565b50600581016113798682611966565b50600681016113888582611966565b50600781016113978482611966565b50600180549060006113a8836118fe565b9190505550600180546113bb9190611a26565b9a9950505050505050505050565b60405180610100016040528060006001600160a01b03168152602001606081526020016060815260200160608152602001606081526020016060815260200160608152602001606081525090565b60006020828403121561142957600080fd5b5035919050565b6000815180845260005b818110156114565760208185018101518683018201520161143a565b506000602082860101526020601f19601f83011685010191505092915050565b6001600160a01b03891681526101006020820181905260009061149b8382018b611430565b905082810360408401526114af818a611430565b905082810360608401526114c38189611430565b905082810360808401526114d78188611430565b905082810360a08401526114eb8187611430565b905082810360c08401526114ff8186611430565b905082810360e08401526115138185611430565b9b9a5050505050505050505050565b80516001600160a01b031682526000610100602083015181602086015261154b82860182611430565b915050604083015184820360408601526115658282611430565b9150506060830151848203606086015261157f8282611430565b915050608083015184820360808601526115998282611430565b91505060a083015184820360a08601526115b38282611430565b91505060c083015184820360c08601526115cd8282611430565b91505060e083015184820360e08601526115e78282611430565b95945050505050565b6000602080830181845280855180835260408601915060408160051b870101925083870160005b8281101561164557603f19888603018452611633858351611522565b94509285019290850190600101611617565b5092979650505050505050565b634e487b7160e01b600052604160045260246000fd5b600082601f83011261167957600080fd5b813567ffffffffffffffff8082111561169457611694611652565b604051601f8301601f19908116603f011681019082821181831017156116bc576116bc611652565b816040528381528660208588010111156116d557600080fd5b836020870160208301376000602085830101528094505050505092915050565b6000806040838503121561170857600080fd5b82359150602083013567ffffffffffffffff81111561172657600080fd5b61173285828601611668565b9150509250929050565b60208152600061174f6020830184611522565b9392505050565b80356001600160a01b038116811461176d57600080fd5b919050565b600080600080600080600080610100898b03121561178f57600080fd5b61179889611756565b9750602089013567ffffffffffffffff808211156117b557600080fd5b6117c18c838d01611668565b985060408b01359150808211156117d757600080fd5b6117e38c838d01611668565b975060608b01359150808211156117f957600080fd5b6118058c838d01611668565b965060808b013591508082111561181b57600080fd5b6118278c838d01611668565b955060a08b013591508082111561183d57600080fd5b6118498c838d01611668565b945060c08b013591508082111561185f57600080fd5b61186b8c838d01611668565b935060e08b013591508082111561188157600080fd5b5061188e8b828c01611668565b9150509295985092959890939650565b600181811c908216806118b257607f821691505b602082108103610a2357634e487b7160e01b600052602260045260246000fd5b634e487b7160e01b600052603260045260246000fd5b634e487b7160e01b600052601160045260246000fd5b600060018201611910576119106118e8565b5060010190565b601f82111561196157600081815260208120601f850160051c8101602086101561193e5750805b601f850160051c820191505b8181101561195d5782815560010161194a565b5050505b505050565b815167ffffffffffffffff81111561198057611980611652565b6119948161198e845461189e565b84611917565b602080601f8311600181146119c957600084156119b15750858301515b600019600386901b1c1916600185901b17855561195d565b600085815260208120601f198616915b828110156119f8578886015182559484019460019091019084016119d9565b5085821015611a165787850151600019600388901b60f8161c191681555b5050505050600190811b01905550565b81810381811115610ec057610ec06118e856fea26469706673582212209d0ded4ccce022958e90129336b4545f614b4fbe8275d044accc8845bf8ae22764736f6c63430008130033",
    "sourcePath": "d:/Work/Project_Code/Second Part/blockchain/src/etherContract.sol",
    "compiler": {
        "name": "solc",
        "version": "0.8.19+commit.7dd6d404"
    },
    "functionHashes": {
        "createShipment(address,string,string,string,string,string,string,string)": "f6c58b25",
        "numberOfShipments()": "cb68065a",
        "shipmentList()": "56baa420",
        "shipments(uint256)": "2ac08a93",
        "updateShipmentStatus(uint256,string)": "9b074a6f",
        "userShipment(uint256)": "f603afb2"
    },
    "gasEstimates": {
        "creation": {
            "codeDepositCost": "1353400",
            "executionCost": "6416",
            "totalCost": "1359816"
        },
        "external": {
            "createShipment(address,string,string,string,string,string,string,string)": "infinite",
            "numberOfShipments()": "2339",
            "shipmentList()": "infinite",
            "shipments(uint256)": "infinite",
            "updateShipmentStatus(uint256,string)": "infinite",
            "userShipment(uint256)": "infinite"
        },
        "internal": {
            "addressToString(address)": "infinite",
            "uint256ToString(uint256)": "infinite"
        }
    }
}